:100000000C94FD000C941A010C941A010C941A0122
:100010000C941A010C941A010C941A010C941A01F4
:100020000C941A010C941A010C941A010C941A01E4
:100030000C941A010C941A010C94CE040C941A011D
:100040000C941A010C941A010C941A010C941A01C4
:100050000C941A010C941A010C941A010C941A01B4
:100060000C941A010C9409050C941A010C944A057D
:100070000C941A010C941A010C941A010C941A0194
:100080000C941A010C941A010C941A010C941A0184
:100090000C941A010C941A010C941A010C941A0174
:1000A0000C941A010C941A010C941A010C941A0164
:1000B0000C941A010C941A010C941A010C941A0154
:1000C0000C941A010C941A010C941A010C941A0144
:1000D0000C941A010C941A010C941A010C941A0134
:1000E0000C941A010C941A010C94C0060C941A0179
:1000F0000C94F3060C941A010C941A010C941A0136
:100100000C941A010C941A010C941A010C941A0103
:100110000C941A010C941A010C941A010C941A01F3
:100120000C941A010C941A010C941A010C941A01E3
:100130000C941A010C941A010C941A010C941A01D3
:100140000C941A010C941A010C941A010C941A01C3
:100150000C941A010C941A010C941A010C941A01B3
:100160000C94AD050C941A010C9426060C941A01FB
:100170000C941A010C941A015A01B701B701B70186
:10018000A901B701B701B701B701B701B701B001C4
:10019000B7016601B701A2017E017201B701B70183
:1001A000B701910185019B01DA02DF02F002010330
:1001B0001203220334034403540331313532303007
:1001C000003537363030003338343030003238388C
:1001D0003030003139323030003936303000343888
:1001E00030300032343030003132303000636469F6
:1001F0006E6F70737578585B000011241FBECFEFCF
:10020000CDBFD7E2DEBF12E2A0E0B0E2EAE9FCE156
:1002100002C005900D92A633B107D9F722E2A6E3FA
:10022000B2E201C01D92A83AB207E1F70E9474073A
:100230000C944B0E0C940000CF93C82F0E94CF015A
:100240008C2F0E94730580E00E9473058FE30E944B
:100250007305CF91089546E150E060E070E08EE4D0
:1002600092E20E94D10C48E050E067E170E086E441
:1002700092E20E94D10C6091452286E190E00E94BA
:10028000DB0C0895CF93DF93C82FD62FE0E4F6E080
:100290009681926096830E9431054C2F50E0FA01BE
:1002A000E354F109E831F10508F061C0E454FF4F6F
:1002B0000C94CC0783E40E9473050E9431058D2FB6
:1002C0000E9473050E943105C0E05FC080E50E9476
:1002D00073050E9431058D2F0E9473050E94310520
:1002E000C0E053C084E50E9473050E9431058D2F44
:1002F0000E9473050E943105C0E047C083E50E945B
:1003000073050E943105C82F40C089E50E9473051E
:100310000E9431058D2F0E9473050E943105C82F60
:1003200034C088E50E947305E0E4F6E085818260D0
:100330008583C0E030C08AE50E9473050E943105C4
:10034000C0E023C082E50E9473050E943105C0E031
:100350001CC087E40E9473050E943105C0E015C0EF
:100360008EE40E9473050E943105C0E00EC0E0E4F7
:10037000F6E0858182608583C83529F0C0E088E594
:100380000E94730508C0C0E006C0E0E4F6E0858185
:1003900082608583F4CF8C2FDF91CF910895682FF1
:1003A00084E50E9442010895FF920F931F93CF931B
:1003B000DF93F82E192F062FE0E4F6E02681226065
:1003C00026830E9431058DE40E9473050E94310549
:1003D000002369F0CF2DD12F10E088810E94730592
:1003E00089810E9473051F5F22960113F6CF8FEF5C
:1003F0000E9473050E94310588E50E947305E0E4C0
:10040000F6E0858182608583DF91CF911F910F9106
:10041000FF90089566E18EE492E20E94D40108956F
:100420008EE290E20E94ED0708952F923F924F9244
:100430005F926F927F928F929F92AF92BF92CF9274
:10044000DF92EF92FF920F931F93CF93DF9300D031
:10045000CDB7DEB71F928CE08F9381E490E29F933B
:100460008F930E94D9070F900F900F900F900F2E2F
:10047000FAE66F2EF0E27F2EF02D0F2EFFE74F2EC3
:10048000F0E25F2EF02D0F2EFEE2EF2EF1E2FF2EB6
:10049000F02DCE0101965C010F2EF6E58F2EF1E2D4
:1004A0009F2EF02D0F2EF6E72F2EF1E23F2EF02D8E
:1004B00087E590E20E94ED07EFE4F2E280811F926F
:1004C0008F937F926F920E94D907E3E5F2E28081D9
:1004D0001F928F935F924F920E94D907E5E5F2E257
:1004E00080811F928F9389E990E29F938F930E945E
:1004F000D907809159221F928F9383EB90E29F93AB
:100500008F930E94D90780915B221F928F9386EC74
:1005100090E29F938F930E94D90780915F221F9250
:100520008F9389ED90E29F938F930E94D9078091DA
:1005300045221F928F938DEF90E29F938F930E949D
:10054000D90787E191E29F938F930E94D9070F2EDD
:10055000FEE4CF2EF2E2DF2EF02DCDBFDEBF06E4AB
:1005600012E2F80181918F011F928F93FF92EF9217
:100570000E94D9070F900F900F900F900C151D053A
:1005800081F783E391E20E94ED07BF92AF929F92C1
:100590008F920E941A080F900F900F900F908981F0
:1005A0009A818930910508F0A1C0FC01EC52FF4FFF
:1005B0000C94CC0789E591E20E94ED07A2C00E944D
:1005C0001002BF92AF929F928F920E941A08898167
:1005D000EFE4F2E280830F900F900F900F908EC0A7
:1005E0000E941002BF92AF929F928F920E941A08AF
:1005F0008981E3E5F2E280830F900F900F900F90D6
:100600007DC00E941002BF92AF929F928F920E9473
:100610001A088981E5E5F2E280830F900F900F9030
:100620000F906CC00E941002BF92AF929F928F9267
:100630000E941A088981809359220F900F900F9081
:100640000F905CC00E941002BF92AF9283E791E2CC
:100650009F938F930E941A08898180935B220F9049
:100660000F900F900F904AC00E941002BF92AF925D
:100670009F928F920E941A08898180935F220F9027
:100680000F900F900F903AC00E941002BF92AF924D
:100690009F928F920E941A088981809345220F9021
:1006A0000F900F900F902AC00F2EF6E4CF2EF2E29B
:1006B000DF2EF02D01E010E01F930F933F922F9259
:1006C0000E94D9070E941002BF92AF929F928F9210
:1006D0000E941A088981F60181936F010F5F1F4FF5
:1006E000CDBFDEBF0930110539F708C082E891E2BD
:1006F0009F938F930E94D9070F900F900E942B0118
:10070000D7CE0F900F90DF91CF911F910F91FF9057
:10071000EF90DF90CF90BF90AF909F908F907F90A1
:100720006F905F904F903F902F90089542E050E07F
:100730006FE170E085E692E20E94B50C089542E018
:1007400050E06FE170E085E692E20E94D10C0895DE
:100750002F923F924F925F926F927F928F929F92D1
:10076000AF92BF92CF92DF92EF92FF920F931F93BF
:10077000CF93DF93CDB7DEB72C97CDBFDEBF1F92EF
:100780008CE08F9389E991E29F938F930E94D90720
:100790000F900F900F900F907E0183E0E80EF11CF8
:1007A0000F2EFDEA4F2EF1E25F2EF02D0F2EF6EC0C
:1007B0002F2EF1E23F2EF02DFE0131964F010F2E2C
:1007C000F6E56F2EF1E27F2EF02D0F2EF9EDAF2E14
:1007D000F1E2BF2EF02D87E590E20E94ED07E09157
:1007E0008E22F0E0EE0FFF1FE050F04E6591749105
:1007F000C7010E94D207FF92EF925F924F920E9430
:10080000D907E5E6F2E280811F928F933F922F9203
:100810000E94D90783E391E20E94ED079F928F9295
:100820007F926F920E941A08CDBFDEBF89819A81A4
:100830008130910551F020F0029709F440C054C076
:1008400089E591E20E94ED0754C00F2EF0E0CF2E13
:10085000F0E2DF2EF02D00E010E0F60165917491DA
:10086000C7010E94D207FF92EF921F930F93BF928E
:10087000AF920E94D9070F5F1F4F92E0C90ED11CA3
:100880000F900F900F900F900F900F90093011055F
:1008900021F780EE91E20E94ED079F928F927F9266
:1008A0006F920E941A08698160938E2281E290E023
:1008B0000E94DB0C0F900F900F900F908CCF88EF61
:1008C00091E20E94ED079F928F927F926F920E9419
:1008D0001A088981E5E6F2E280830E949F030F9067
:1008E0000F900F900F9077CF84E092E20E94ED0777
:1008F00072CF2C96CDBFDEBFDF91CF911F910F91AC
:10090000FF90EF90DF90CF90BF90AF909F908F902F
:100910007F906F905F904F903F902F9008952FB7EA
:10092000F894E0E0F8E086E080831182138214827C
:1009300081E086831782A0E9B0E019968C9119971F
:100940008E7F98ED94BF19968C93A0E8B8E01C9226
:1009500013968C911397887E13968C931397149605
:100960009C91149714968C9114978470892B1496EB
:100970008C9310A211A282EE94E086A397A310A6F6
:1009800011A612A613A614A615A616A617A62FBF63
:100990000895809367229093682208951F920F9282
:1009A0000FB60F9211248F93EF93FF93E09167227C
:1009B000F09168228081882329F03197E0936722A3
:1009C000F0936822809169228F5F8093692280E290
:1009D000E0E0F6E08783FF91EF918F910F900FBEDB
:1009E0000F901F901895E0E4F6E088E085838183FE
:1009F000E0EAF8E083E085838381807C84618383FF
:100A000085EF86838CEC87838481807E8C618483F0
:100A100008951F920F920FB60F9211242F933F93B8
:100A20004F935F936F937F938F939F93AF93BF93F6
:100A3000EF93FF93E0EAF8E0818180810E944F0606
:100A4000FF91EF91BF91AF919F918F917F916F91A6
:100A50005F914F913F912F910F900FBE0F901F907C
:100A6000189590913922911101C0FFCFE0913A225F
:100A700021E02E0F20933A22F0E0EC58FD4D8081CA
:100A8000283011F410923A22F89491509093392220
:100A9000789408951F920F920FB60F9211248F939E
:100AA000EF93FF93809136228823A9F081508093A1
:100AB0003622E091372281E08E0F80933722F0E0DA
:100AC000E459FD4D80818093A008809137228830C1
:100AD00011F410923722FF91EF918F910F900FBE7A
:100AE0000F901F90189590913622983009F4FFCFFF
:100AF000F894911105C0E0EAF8E0218125FD12C0CB
:100B0000E091382221E02E0F20933822F0E0E459C2
:100B1000FD4D8083283011F4109238229F5F90930E
:100B2000362202C08093A00878940895E0E6F6E0AB
:100B30008CE0858388E08183E0EAF9E083E08583C7
:100B40008381807C8461838385EF86838CEC8783BB
:100B50008481807E8C61848308951F920F920FB6EA
:100B60000F9211242F933F934F935F936F937F9333
:100B70008F939F93AF93BF93EF93FF93E0EAF9E0D6
:100B8000818180810E947305FF91EF91BF91AF91A8
:100B90009F918F917F916F915F914F913F912F9195
:100BA0000F900FBE0F901F90189520913E2221119B
:100BB00001C0FFCFE0913F2231E03E0F30933F2252
:100BC000F0E0E458FD4D808190E0383011F410924F
:100BD0003F22F894215020933E22789408958093E8
:100BE0008C2290938D220895E0918C22F0918D2299
:100BF000808390913E22E0918C22F0918D22911180
:100C000020C080818111FDCF18C0E0913F2221E0FA
:100C10002E0F20933F22F0E0E458FD4D80812830D4
:100C200011F410923F22F894915090933E227894C0
:100C3000089580E0089580E008958081811105C0C5
:100C4000F8CF80818111E1CFF6CFFFCF1F920F92B5
:100C50000FB60F9211248F93EF93FF9380913B2255
:100C60008823A9F0815080933B22E0913C2281E0CF
:100C70008E0F80933C22F0E0EC57FD4D80818093F5
:100C8000A00980913C22883011F410923C22FF91FF
:100C9000EF918F910F900FBE0F901F90189590912C
:100CA0003B22983009F4FFCFF894911105C0E0EA97
:100CB000F9E0218125FD12C0E0913D2221E02E0FB7
:100CC00020933D22F0E0EC57FD4D8083283011F455
:100CD00010923D229F5F90933B2202C08093A00917
:100CE0007894089590913B22983009F4FFCFF894BE
:100CF000911105C0E0EAF9E0218125FD12C0E091E3
:100D00003D2221E02E0F20933D22F0E0EC57FD4DD7
:100D10008083283011F410923D229F5F90933B22F4
:100D200002C08093A009789480E090E008958091BB
:100D30008E228F3F11F410928E2281E290E00E9469
:100D4000C10C80938E22E0E4F6E098E095839183D5
:100D5000E0EAFAE093E095839381907C9461938339
:100D6000A82FB0E0AA0FBB1FA05FBD4D8C9186835A
:100D700011968C9187838481807E88618483089515
:100D80001F920F920FB60F9211248F939F93EF93A0
:100D9000FF93E0EAFAE0818190818C71D9F4E091CF
:100DA000432281E08E0F80934322F0E0E756FD4D11
:100DB0009083883011F410924322809142228F5FF9
:100DC000883019F08093422205C01092422281E0BF
:100DD00080934422FF91EF919F918F910F900FBECE
:100DE0000F901F9018951F920F920FB60F9211241B
:100DF0008F93EF93FF9380E1E0E4F6E087838091A7
:100E000040228823A9F0815080934022E091412222
:100E100081E08E0F80934122F0E0EF56FD4D8081FE
:100E20008093A00A80914122883011F410924122CF
:100E3000FF91EF918F910F900FBE0F901F9018951B
:100E40009FB7F894E0E5F0E082E0828380818860DB
:100E50008083818183FFFDCFE0E5F0E080818260C7
:100E60008083A0E4B0E011968C911197807828EDF2
:100E700024BF11968C9386818C7F82608683E0E606
:100E8000F0E0808181608083E0E5F0E0818181FF96
:100E9000FDCFE0E4F0E08081887F816028ED24BF11
:100EA0008083E0E5F0E080818A7E8083E0EBF0E003
:100EB00084818C7F84839FBF08951F928CE08F93E1
:100EC00082E292E29F938F930E94D9078FEF0E9454
:100ED000F4050F900F900F900F90803221F40E9434
:100EE00015020E94A803089582E190E28093A22255
:100EF0009093A32280E290E28093A4229093A52273
:100F0000F894E0EAF0E082818873816098ED94BF04
:100F1000828311820E9420070E94F3040E9496059A
:100F20000E949706E0E4F6E080E18183878378946D
:100F300080818260808385818260858324E535E8B5
:100F400085E491E02150304080409040D9F700C0C6
:100F500000C0000086818260868381EA92E20E945E
:100F6000EF050E942B010E940A020E9496030E9434
:100F70005D070E948F0481EA92E20E94C90484E026
:100F80000E941C012FEF37EA81E62150304080405B
:100F9000E1F700C00000F3CFEE0FFF1F0590F491C2
:100FA000E02D0994FB01DC0105900D920020E1F792
:100FB0000895A0E0B0E0EFEDF7E00C942A0EFE01FA
:100FC000359661917191AF018091A4229091A522F3
:100FD0000E942E08E2E00C94430E0F931F93CF93D0
:100FE000DF93E091A422F091A522238121FF1BC071
:100FF000EC0100E010E089916091A4227091A5229B
:10100000DB011896ED91FC911997882331F0099531
:10101000892B89F30FEF1FEFEECF8AE00995892B1B
:1010200011F4C80102C08FEF9FEFDF91CF911F91A4
:101030000F910895A0E0B0E0E0E2F8E00C942A0EF1
:10104000FE01359661917191AF018091A22290913C
:10105000A3220E947E0BE2E00C94430EACE0B0E0D1
:10106000E4E3F8E00C941A0E7C016B018A01FC01A8
:1010700016821782838181FFBDC1CE0101964C018A
:10108000F7019381F60193FD859193FF81916F01A3
:10109000882309F4ABC1853239F493FD859193FF20
:1010A00081916F01853229F4B70190E00E946E0DA5
:1010B000E7CF512C312C20E02032A0F48B3269F0A4
:1010C00030F4803259F0833269F420612CC08D32C3
:1010D00039F0803339F4216026C02260246023C0B7
:1010E000286021C027FD27C030ED380F3A3078F452
:1010F00026FF06C0FAE05F9E300D1124532E13C068
:101100008AE0389E300D1124332E20620CC08E32BE
:1011100021F426FD6BC1206406C08C3611F42068D2
:1011200002C0883641F4F60193FD859193FF8191C9
:101130006F018111C1CF982F9F7D9554933028F472
:101140000C5F1F4FFFE3F9830DC0833631F0833707
:1011500071F0833509F05BC022C0F801808189837A
:101160000E5F1F4F44244394512C540115C0380185
:10117000F2E06F0E711CF801A080B18026FF03C061
:10118000652D70E002C06FEF7FEFC5012C870E94D4
:10119000250D2C0183012C852F77222E17C03801B5
:1011A000F2E06F0E711CF801A080B18026FF03C031
:1011B000652D70E002C06FEF7FEFC5012C870E94A4
:1011C000110D2C012C852068222E830123FC1BC0CD
:1011D000832D90E048165906B0F4B70180E290E004
:1011E0000E946E0D3A94F4CFF50127FC859127FEFD
:1011F00081915F01B70190E00E946E0D31103A9429
:10120000F1E04F1A51084114510471F7E5C08436DA
:1012100011F0893639F5F80127FF07C06081718127
:10122000828193810C5F1F4F08C060817181882784
:1012300077FD8095982F0E5F1F4F2F76B22E97FF68
:1012400009C090958095709561957F4F8F4F9F4F06
:101250002068B22E2AE030E0A4010E94B90DA82E29
:10126000A81844C0853729F42F7EB22E2AE030E03A
:1012700025C0F22FF97FBF2E8F36C1F018F48835C4
:1012800079F0B4C0803719F0883721F0AFC02F2F24
:101290002061B22EB4FE0DC08B2D8460B82E09C023
:1012A00024FF0AC09F2F9660B92E06C028E030E0C8
:1012B00005C020E130E002C020E132E0F801B7FED5
:1012C00007C060817181828193810C5F1F4F06C0CE
:1012D0006081718180E090E00E5F1F4FA4010E9449
:1012E000B90DA82EA818FB2DFF77BF2EB6FE0BC098
:1012F0002B2D2E7FA51450F4B4FE0AC0B2FC08C0FA
:101300002B2D2E7E05C07A2C2B2D03C07A2C01C0EC
:10131000752C24FF0DC0FE01EA0DF11D8081803384
:1013200011F4297E09C022FF06C07394739404C08F
:10133000822F867809F0739423FD13C020FF06C026
:101340005A2C731418F4530C5718732C731468F434
:10135000B70180E290E02C870E946E0D73942C857B
:10136000F5CF731410F4371801C0312C24FF12C0CC
:10137000B70180E390E02C870E946E0D2C8522FF40
:1013800017C021FF03C088E590E002C088E790E025
:10139000B7010CC0822F867859F021FD02C080E28F
:1013A00001C08BE227FD8DE2B70190E00E946E0D37
:1013B000A51438F4B70180E390E00E946E0D5A94B2
:1013C000F7CFAA94F401EA0DF11D8081B70190E0F6
:1013D0000E946E0DA110F5CF332009F451CEB70154
:1013E00080E290E00E946E0D3A94F6CFF70186817C
:1013F000978102C08FEF9FEF2C96E2E10C94330EA1
:1014000020FD09C0FC0123FD05C022FF02C073833B
:10141000628351834083089544FD10C046FD10C08F
:10142000DB01FC01AA0FBB1FEE1FFF1F1094D1F7B9
:101430006A0F7B1F8E1F9F1F31E003C033E001C086
:1014400034E0660F771F881F991F3150D1F7620F64
:10145000711D811D911D08950F931F93CF93DF93ED
:101460008C01C8010E94300DEC0197FD08C00E945C
:10147000FE0C892BB1F7B801CE010E94A00DCE0160
:10148000DF91CF911F910F9108958F929F92AF920C
:10149000CF92DF92EF92FF920F931F93CF93DF9340
:1014A000EC01A62E4A01022F0E94300DAC015527F7
:1014B0004B32510521F04D32510551F40068AA9488
:1014C00011F480E067C0CE010E94300D97FDF9CF86
:1014D000102F1D7F302F307301F58033F1F4FF247E
:1014E000FA94FA0C09F442C0CE010E94300D97FD27
:1014F0003DC0382F3F7D383551F41264AA94AA9428
:10150000A9F1CE010E94300D97FF07C02FC006FF42
:1015100002C0126001C01261AF2CC12CD12C760127
:1015200020ED280F283080F014FF04C0BE010E9477
:10153000A00D19C02A3040F016FFF8CF2F7D3FEEE6
:10154000320F363098F72750412FC701B6010E945D
:101550000C0A6B017C011260AA9459F0CE010E9422
:10156000300D97FFDDCF11FD04C0ABCFC12CD12CC6
:10157000760117FF08C0F094E094D094C094C11C89
:10158000D11CE11CF11C212FB701A601C4010E944E
:10159000000A81E0DF91CF911F910F91FF90EF90B2
:1015A000DF90CF90AF909F908F900895A1E2B0E030
:1015B000ECEDFAE00C941F0E5C017A018E010F5FD6
:1015C0001F4F680180E2D8011D928A95E9F7F50165
:1015D000738040E050E0812CB0E0912C81E090E0FD
:1015E000F90173FCA59173FEA1918F017A2F9F01E0
:1015F000A11103C080E090E07DC0AE3519F4411523
:10160000510559F1E92DF0E0E417F5073CF4AD354B
:1016100069F1AD3219F4BB2319F103C0B11101C056
:101620008A2EE72FE695E695E69586010E0F111DA9
:10163000F801A72FA7708C0102C0000F111FAA95F7
:10164000E2F7D801B081BA2BB083781559F078153C
:1016500010F47F5FE6CF7150E4CF9924939403C0D8
:10166000B1E001C0B0E04F5F5F4FBACFBB2319F0CC
:101670008E8180628E83911003C09924939415C04B
:10168000F601CE018196208120952193E817F90774
:10169000D1F7F3CFE114F10429F0D7018C93F701CE
:1016A00031967F01615001F1912CC50169A30E941F
:1016B000300D69A197FD16C0282F269526952695F1
:1016C000F601E20FF11D208130E0AC014770552793
:1016D00002C0359527954A95E2F720FDDBCFB5018D
:1016E0000E94A00D911086CFE114F10411F0D701F2
:1016F0001C92C801A196EDE00C94380E4F925F92B7
:101700007F928F929F92AF92BF92CF92DF92EF9291
:10171000FF920F931F93CF93DF931F92CDB7DEB746
:101720008C012B017A01FC0116821782A12CF80191
:10173000D380F201D3FC8591D3FE8191382F2F0104
:10174000882309F4FCC090E039830E94FE0C3981A3
:10175000892B21F0C8010E942C0AE9CF353241F4CF
:10176000F201D3FC3591D3FE31912F01353269F46A
:10177000C80139830E94300D398197FDDEC03817CA
:10178000B1F2B8010E94A00DDAC03A3241F4D3FCA4
:101790003591D3FE31912F01BB24B39401C0B12CFC
:1017A000712C20ED230F2A3090F4FB2DF260BF2E18
:1017B000672D70E080E090E040E20E940C0A762EF7
:1017C000F201D3FC3591D3FE31912F01EACFB1FE66
:1017D00003C0711003C0B3C077247A94383619F06F
:1017E0003C3661F014C0F201D3FC3591D3FE319147
:1017F0002F01383661F4FB2DF860BF2E8B2D8460ED
:10180000B82EF201D3FC3591D3FE31912F01332351
:1018100009F495C0632F70E08DEE91E039830E944A
:10182000060D3981892B09F48AC0B0FC07C0F70185
:10183000C080D180C70102967C0102C0C12CD12C8E
:101840003E3651F4F8014681578160E070E02B2D5F
:10185000C6010E94000A6BCF3336A1F4B1FC02C06E
:1018600077247394C8010E94300D97FD66C0C1149F
:10187000D10429F0F6018083C60101966C017A94A7
:1018800089F757C03B3559F49201A601672DC8016D
:101890000E94D60A2C01009709F04BC045C0C80130
:1018A00039830E942C0A398197FD47C03F3669F180
:1018B00028F4343631F1393679F12BC0333769F0F9
:1018C0003537F9F026C0C114D10429F0F601808221
:1018D000C60101966C017A9471F0C8010E94300D26
:1018E0004C0197FD08C00E94FE0C892B61F3B801E2
:1018F000C4010E94A00DC114D104D9F0F6011082D8
:1019000018C0FB2DF062BF2E07C08B2D8061B82E52
:1019100003C09B2D9064B92E2B2DA601672DC80105
:101920000E94450A811105C0F8018381807329F462
:1019300006C0B0FCFCCEA394FACEAA2019F08A2DE2
:1019400090E002C08FEF9FEF0F90DF91CF911F913A
:101950000F91FF90EF90DF90CF90BF90AF909F904E
:101960008F907F905F904F900895E0ECF1E0A78515
:10197000A7FDFDCFA485A860A4876050704F0C948C
:101980001C0D03D0808199270895E0ECF1E03785A4
:1019900037FDFDCF348538603487FC01E050F04FCF
:1019A0000895DC01CB0103C02D910E94DC0C415055
:1019B0005040D0F70895262FE0ECF1E0378537FD51
:1019C000FDCF3485377F3487378531FF09C036E353
:1019D000328738ED34BF31E03387378537FDFDCFAF
:1019E00033E33287808391831282248325E3228725
:1019F00028ED31E024BF338701960895911117C176
:101A0000803219F089508550D0F70895FC01059077
:101A1000061621F00020D9F7C00108953197CF01B3
:101A20000895FC010590615070400110D8F7809531
:101A300090958E0F9F1F0895FB01DC0102C001905D
:101A40000D9241505040D8F70895FC01615070400C
:101A500001900110D8F7809590958E0F9F1F0895E3
:101A6000CF93DF93EC012B8120FF33C026FF0AC008
:101A70002F7B2B838E819F8101968E839F838A810A
:101A800090E029C022FF0FC0E881F9818081992769
:101A900087FD9095009719F420622B831AC0319628
:101AA000E883F9830EC0EA85FB85099597FF09C095
:101AB0002B81019611F480E101C080E2822B8B839F
:101AC00008C02E813F812F5F3F4F2E833F83992790
:101AD00002C08FEF9FEFDF91CF9108950F931F9377
:101AE000CF93DF93182F092FEB018B8181FD03C06A
:101AF0008FEF9FEF20C082FF10C04E815F812C814D
:101B00003D81421753077CF4E881F9819F012F5FE3
:101B10003F4F28833983108306C0E885F985812FDC
:101B20000995892B29F72E813F812F5F3F4F2E8307
:101B30003F83812F902FDF91CF911F910F910895B7
:101B4000FB01238120FF12C026FD10C08F3F3FEF15
:101B5000930761F082832F7D206423832681378160
:101B60002150310926833783992708958FEF9FEFFE
:101B70000895FA01AA27283051F1203181F1E89423
:101B80006F936E7F6E5F7F4F8F4F9F4FAF4FB1E070
:101B90003ED0B4E03CD0670F781F891F9A1FA11D6B
:101BA000680F791F8A1F911DA11D6A0F711D811D6C
:101BB000911DA11D20D009F468943F912AE0269F31
:101BC00011243019305D3193DEF6CF010895462F90
:101BD0004770405D4193B3E00FD0C9F7F6CF462F71
:101BE0004F70405D4A3318F0495D31FD40524193DA
:101BF00002D0A9F7EACFB4E0A69597958795779597
:101C00006795BA95C9F700976105710508959B011D
:101C1000AC010A2E06945795479537952795BA95A6
:101C2000C9F7620F731F841F951FA01D0895992780
:101C3000882708952F923F924F925F926F927F92E2
:101C40008F929F92AF92BF92CF92DF92EF92FF92CC
:101C50000F931F93CF93DF93CDB7DEB7CA1BDB0B78
:101C6000CDBFDEBF09942A88398848885F846E8496
:101C70007D848C849B84AA84B984C884DF80EE80B0
:101C8000FD800C811B81AA81B981CE0FD11DCDBFF2
:0A1C9000DEBFED010895F894FFCFC8
:101C9A00E801E301DE01D901D301CD01C701C10188
:101CAA00BA0100000001000000000000D505000094
:101CBA000000000200000000720600000000706FC1
:101CCA0064616A206E6F77B920776172746F9CE6DF
:101CDA00002563555354415749454E4941205241C5
:101CEA0044494F57450A00302057796A9C63696511
:101CFA00207A20656479636A69003120556E696BC0
:101D0A0061746F777920616472657325640A0032A1
:101D1A0020416472657320726F7A67B36F737A6554
:101D2A006E696F777925640A003320537A79626B7A
:101D3A006F9CE6207472616E736D69736A692025FF
:101D4A00640A0034204B616E61B320726164696F6A
:101D5A00777925640A0035204D6F63206F6420313E
:101D6A0020646F203525640A003620435243203010
:101D7A002D6272616B3B20312D6B6F6E74726F6CCA
:101D8A006120616B7479776E6125640A0037204C93
:101D9A0069637A6261206D6F6475B3F37720736C3F
:101DAA0061766525640A003820416472657379207A
:101DBA006D6F6475B3F37720736C617665002020CC
:101DCA002558000A5779626965727A206E756D65C1
:101DDA007220706172616D6574727520646F20651E
:101DEA006479636A69002564004B6F6E69656320D4
:101DFA006B6F6E666967757261636A692072616486
:101E0A00696100256900656C656D656E74202564DD
:101E1A0020007779626965727A20706F70726177D3
:101E2A006E79206E756D657200256355535441575E
:101E3A0049454E49412052533438350A003120531E
:101E4A007A79626B6F9CE6207472616E736D697346
:101E5A006A692025730032204164726573206D6FB0
:101E6A006475B3752025640A0025642025730A0069
:101E7A007779626965727A206E756D657220707203
:101E8A00EA646B6F9C636900706F64616A206164C5
:101E9A00726573005AA35920575942D3520A0A004D
:101EAA00040D03FD01EDFDDCF5CC9EC8E5BC8EB842
:101EBA006EA825634E6163699C6E696A20737061BE
:061ECA00636AEA0A000051
:00000001FF
