:020000022000DC
:100000000D94BC000D94CE000D94CE000D94CE0046
:100010000D94CE000D94CE000D94CE000D94CE0024
:100020000D94CE000D94CE000D94CE000D94CE0014
:100030000D94CE000D94CE000D94EC040D94CE00E2
:100040000D94CE000D94CE000D94CE000D94CE00F4
:100050000D94CE000D94CE000D94CE000D94CE00E4
:100060000D94CE000D94CE000D94CE000D94CE00D4
:100070000D94CE000D94CE000D94CE000D94CE00C4
:100080000D94CE000D94CE000D94CE000D94CE00B4
:100090000D94CE000D94CE000D94CE000D94CE00A4
:1000A0000D94CE000D94CE000D94CE000D94CE0094
:1000B0000D94CE000D94CE000D94CE000D94CE0084
:1000C0000D94CE000D94CE000D94CE000D94CE0074
:1000D0000D94CE000D94CE000D94CE000D94CE0064
:1000E0000D94CE000D94CE000D94CE000D94CE0054
:1000F0000D94CE000D94CE000D94CE000D94CE0044
:100100000D94CE000D94CE000D94CE000D94CE0033
:100110000D94CE000D94CE000D94CE000D94CE0023
:100120000D94CE000D94CE000D94CE000D94CE0013
:100130000D94CE000D94CE000D94CE000D94CE0003
:100140000D94CE000D94CE000D94CE000D94CE00F3
:100150000D94CE000D94CE000D94CE000D94CE00E3
:100160000D942F050D94CE000D94B5050D94CE0081
:100170000D94CE000D94CE0011241FBECFEFD7E218
:10018000DEBFCDBF20E2A0E0B0E201C01D92AC31E5
:10019000B207E1F70F9438030D9449060D9400005F
:1001A0003BB78BBFFB0186913BBF08953BB78BBF2D
:1001B000FB01879196913BBF089542E081C041E0E9
:1001C0007FC08093C00188278093C1018093C201C2
:1001D00047E066D0CB0108958093C40148E060C039
:1001E0008091D00108953BB748E10D945E063BB77E
:1001F0004AE10D945E063BB740E20D945E063BB7C4
:100200008BBFCB0142E20D945E063BB70B0143E28C
:100210000D945E063BB76BBFFA0119BEDC0140E0EE
:100220004093CA0150E0879197918D939D935A9581
:10023000D1F73BBF08953BB78BBFCB0144E20D9490
:100240005E063BB78BBFCB0145E20D945E063BB724
:1002500046E20D945E063BB78BBFCB014AE20D949C
:100260005E063BB78BBFCB014CE20D945E063BB7FD
:100270008BBFCB014DE20D945E0648E311C049E30C
:100280000FC028ED2093340021E02093CC01089585
:100290002091CF0127FDFCCF22272093CA0108958A
:1002A0004093CA0128ED31E0209334003093CB0114
:1002B0006091C4017091C5018091C601992708958C
:1002C000FC014093CA01849108958091CF0187FD7C
:1002D000FCCF0895CF93DF9300D0CDB7DEB76A830C
:1002E00089830F9465016A816F71898120E2829F01
:1002F000C0011124862BE0ECF1E08083918312820F
:1003000086E08287EF93FF930F932F93EBECF1E05E
:1003100008ED21E004BF20832F910F91FF91EF9111
:1003200084810F900F90DF91CF9108950F94650114
:100330008091CF0181FF11C086E38093CA01EF93C2
:10034000FF930F932F93EBECF1E008ED21E004BF56
:1003500020832F910F91FF91EF910895CF93DF9319
:1003600000D01F92CDB7DEB74B836A8389830F9489
:100370009601E0ECF1E093E392876A816F718981E5
:1003800020E2829FC0011124862B808391831282F8
:100390004B81448385E38287EF93FF930F932F93E1
:1003A000EBECF1E008ED21E004BF20832F910F91E9
:1003B000FF91EF912396CDBFDEBFDF91CF910895DE
:1003C0002F923F924F925F926F927F928F929F9265
:1003D000AF92BF92CF92DF92EF92FF920F931F9353
:1003E000CF93DF93CDB7DEB7C450D140CDBFDEBFD2
:1003F0005C018A01653409F063C00F949601809115
:10040000CC01877F8093CC0188248394912C8C0E1F
:100410009D1E3401C12CD12C76011501412C512C8B
:100420000AC00F946305F30181933F01FFEFCF1AD8
:10043000DF0AEF0AFF0AC214D304E404F50488F3C8
:10044000C12CD12C760136C0F80180819181A28126
:10045000B381F40161914F019C01AD012F713327EC
:1004600044275527CF5FDE4F288339834A835B8338
:10047000C150D14045E0B695A795979587954A9587
:10048000D1F7462FCF5FDE4F6881C150D1400F9426
:10049000AE01F80180819181A281B3810196A11DF5
:1004A000B11D80839183A283B383FFEFCF1ADF0A4C
:1004B000EF0AFF0AC214D304E404F50428F242C090
:1004C000663409F041C0FA01C080D180E280F38037
:1004D000CC0CDD1CEE1CFF1CC082D182E282F382B8
:1004E0000F9463053C010F946305982E812CB40191
:1004F00066297729F801808191810F940501F8011F
:1005000080819181A281B3810296A11DB11D80835A
:100510009183A283B383F2E0AF1AB10809F7C70150
:10052000B6010F941B010F944801F801808191815D
:10053000A281B381B695A79597958795808391837E
:10054000A283B3838DE001C08FE3CC5FDE4FCDBFCC
:10055000DEBFDF91CF911F910F91FF90EF90DF9061
:10056000CF90BF90AF909F908F907F906F905F9053
:100570004F903F902F900895EF92FF920F931F930B
:10058000CF93DF937C01EA01653479F58091CC014A
:10059000877F8093CC010F949601488159816A81AD
:1005A0007B818A019B010F71112722273327DB01F1
:1005B000CA01E5E0B695A79597958795EA95D1F795
:1005C000602F0F946A010F94E50588819981AA81B3
:1005D000BB810196A11DB11D88839983AA83BB832A
:1005E00081E0E81AF108C9F63CC06634D1F588818B
:1005F0009981AA81BB81880F991FAA1FBB1F88837D
:100600009983AA83BB83688179818A819B810F94B6
:10061000D0000F94E505688179818A819B816F5FA5
:100620007F4F8F4F9F4F0F94D0000F94E5050F948D
:100630004801088119812A813B810E5F1F4F2F4F8E
:100640003F4F088319832A833B8382E0E81AF1082D
:10065000D1F63695279517950795088319832A8330
:100660003B83DF91CF911F910F91FF90EF90089501
:10067000CF93DF9300D000D0CDB7DEB719821A82B6
:100680001B821C820F9496018091CC01877F8093FE
:10069000CC0180E280930106F8948091A2008873D7
:1006A000816498ED94BF8093A2001092A1000F94F2
:1006B0000C060F94DE040F941805789481E40F94CF
:1006C000E50582E40F94E50583E40F94E50584E4F1
:1006D0000F94E50500E010E0B0E27B2E80E293E0AD
:1006E0000F94830570920706813611F489E563C182
:1006F000813471F40F946305582E0F946305F52C23
:10070000E12C8E299F29AA2797FDA095BA2F94C086
:10071000853611F519821A821B821C8213C00F9430
:10072000480169817A818B819C810F94FF008981C6
:100730009A81AB81BC819F5FAF4FBF4F89839A8302
:10074000AB83BC8389819A81AB81BC818115904345
:10075000A105B10520F302C1823629F489E50F9481
:10076000E50581E0EFC08234A1F40F946305182FF2
:100770000F946305D12EC12C8601082B192B0F94E1
:100780006305AE014F5F5F4F682FC8010F94E00112
:1007900012C18736A1F40F946305182F0F946305D7
:1007A000B12EA12C8501082B192B0F946305AE01E6
:1007B0004F5F5F4F682FC8010F94BC028FCF823507
:1007C000E9F40F94480169817A818B819C81660FDD
:1007D000771F881F991F6F5F7F4F8F4F9F4F0F9419
:1007E000D0000F94E50569817A818B819C81660F29
:1007F000771F881F991F0F94D00075C0833621F48E
:100800000F9463058C01AAC08334D9F40F94630557
:10081000982E812C082919290F94480189819A81E1
:10082000B801880F991F0F94050189819A81AB81C6
:10083000BC810196A11DB11D89839A83AB83BC83C2
:100840008DC08D36B9F489819A81AB81BC818115C7
:100850009841A105B10508F0ADC00F944801698128
:100860007A818B819C81660F771F881F991F0F9457
:100870001B0174C08434E1F40F946305682F8981EF
:100880009A81AB81BC813FE1232E312C412C512C2C
:10089000282239224A225B2245E0B695A7959795F2
:1008A00087954A95D1F7462F622D0F94AE011DC052
:1008B000843639F549815A816B817C81FFE12F2E85
:1008C000312C412C512C2422352246225722DB0187
:1008D000CA0125E0B695A795979587952A95D1F7F2
:1008E000622D0F946A010F94E50589819A81AB818D
:1008F000BC810196A11DB11D89839A83AB83BC8302
:10090000EDCE8C3639F40F9448010F9463050F94A3
:10091000EC0024C0803511F18C3409F41FC08534FB
:1009200051F40F9448018DE00F94E5051CBEE0E002
:10093000F0E00995D3CE803711F483E53CC08437CD
:1009400029F48AEF0F94E50580E035C0982F985779
:10095000923010F0843521F40F9463058DE02BC0A4
:100960008335A1F481E40F94E50586E50F94E50550
:1009700082E50F94E50582E40F94E5058FE40F947A
:10098000E5058FE40F94E50584E515C0863529F467
:1009900081E30F94E50586E30EC0833741F481E4DB
:1009A0000F94E50584E90F94E5058EE104C08B31D1
:1009B00009F494CE8FE30F94E50590CEF894E0E02F
:1009C000F8E081E08683118286E0808382EE94E005
:1009D00086A397A3789408951F920F920FB60F9253
:1009E00011248F939F938091082090910920892B47
:1009F000C1F08091082090910920019780930820F0
:100A00009093092080910720815080930720809146
:100A10000720811106C080E28093070685E080935D
:100A200007209F918F910F900FBE0F901F901895E8
:100A3000E0E6F6E08CE0858388E08183E0EAF9E097
:100A400083E085838381807C8461838385EF8683D3
:100A50008CEC87838481807E8C61848308951F92CF
:100A60000F920FB60F9211248F939F93EF93FF93E2
:100A70008091A1099091A0098C71E1F480910520E9
:100A8000E82FF0E0E65FFF4D90838F5F80930520B5
:100A900080910520883011F4109205208091032068
:100AA0008F5F80930320883029F41092032081E027
:100AB00080930620FF91EF919F918F910F900FBE31
:100AC0000F901F901895809103208823E1F3909157
:100AD0000420E92FF0E0E65FFF4D80819F5F909357
:100AE000042090910420983011F410920420F8947E
:100AF00090910320915090930320789490E29093EA
:100B0000070690E008958093082090930920809133
:100B10000320811106C08091082090910920892B23
:100B2000B1F78091082090910920892BE1F0809104
:100B300003208823E1F390910420E92FF0E0E65FA1
:100B4000FF4D80819F5F9093042090910420983006
:100B500011F410920420F8949091032091509093F6
:100B600003207894089585E408951F920F920FB69C
:100B70000F9211248F939F93EF93FF9380E28093C2
:100B80000706809100208823B9F0809100208150D1
:100B90008093002080910120E82FF0E0EE5EFF4D71
:100BA00090819093A0098F5F809301208091012014
:100BB000883011F410920120FF91EF919F918F9155
:100BC0000F900FBE0F901F901895909100209830B5
:100BD000E1F3F89490910020911104C09091A10943
:100BE00095FD16C090910220E92FF0E0EE5EFF4DDA
:100BF00080839F5F9093022080910220883011F4BF
:100C000010920220809100208F5F8093002002C00C
:100C10008093A009789408959FB7F89482E0809318
:100C20005200809150008860809350008091510064
:100C300083FFFCCF809150008260809350008091B0
:100C40004100807828ED24BF8093410080915600B8
:100C50008C7F8260809356008091600081608093D9
:100C600060008091510081FFFCCF80914000887F1F
:100C7000816028ED24BF80934000809150008A7EDF
:100C8000809350008091B4008C7F8093B4009FBF0C
:060C90000895F894FFCF67
:100C9600EE27FF2719BEDC0143E24093CA0150E864
:100CA6002DE90D901D9020933400E89532965A95C3
:100CB600C1F711240895FC014093CA012DE9209340
:0A0CC6003400E89511243BBF0895A7
:0400000320000000D9
:00000001FF
